:060000000A128A11002D16
:100008008A01A000030EA1008C1819250B192525BB
:0E0018000B185F25210E8300A00E200E09009C
:100200008A010A14820700340234043406340834A4
:100210000A340C340E3410341234143416341834B6
:100220001A341C341E342034223424342634283426
:100230002A342C342E343034323434343634383496
:100240003A343C343E344034423444344634483406
:100250004A344C344E345034523454345634583476
:100260005A345C345E3460346234643466346834E6
:100270006A346C346E347034723474347634783456
:100280007A347C347E3480348234843486348834C6
:100290008A348C348E349034923494349634983436
:1002A0009A349C349E34A034A234A434A634A834A6
:1002B000AA34AC34AE34B034B234B434B634B83416
:1002C000BA34BC34BE34C034C234C434C634C83486
:1002D000CA34CC34CE34D034D234D434D634D834F6
:1002E000DA34DC34DE34E034E234E434E634E83466
:1002F000EA34EC34EE34F034F234F434F634F834D6
:08030000FA34FC34FE34FF3432
:100318008A010A14700882072534503474349934D9
:10032800233447347134953417344134663488346F
:1003380010343434653488341134343459348034C6
:1003480003342734503472349434183440346334CA
:10035800853408342934513474349434143436349C
:100368006034843402342234653408341334183445
:1003780022342734323437344234463451345634F4
:100388006134653469347534793485348934943406
:1003980098340334083412341734403485343034F4
:1003A800753419346134563406349534553442342E
:0E03B80083348334833484348534863487342C
:100400008A018A148207FF34FD34FB34F934F7344F
:10041000F534F334F134EF34ED34EB34E934E734CC
:10042000E534E334E134DF34DD34DB34D934D7343C
:10043000D534D334D134CF34CD34CB34C934C734AC
:10044000C534C334C134BF34BD34BB34B934B7341C
:10045000B534B334B134AF34AD34AB34A934A7348C
:10046000A534A334A1349F349D349B3499349734FC
:100470009534933491348F348D348B34893487346C
:100480008534833481347F347D347B3479347734DC
:100490007534733471346F346D346B34693467344C
:1004A0006534633461345F345D345B3459345734BC
:1004B0005534533451344F344D344B34493447342C
:1004C0004534433441343F343D343B34393437349C
:1004D0003534333431342F342D342B34293427340C
:1004E0002534233421341F341D341B34193417347C
:1004F0001534133411340F340D340B3409340734EC
:0605000005340334013450
:100518008A018A14700882070034003400340034D9
:100528000134013401340134023402340234023417
:1005380003340334033403340434043404340434F7
:1005480005340534053405340534063406340634D8
:1005580006340734073407340734073408340834BA
:1005680008340834093409340934013401340134B5
:1005780001340134013401340134013401340134CB
:1005880001340134013401340134013401340134BB
:1005980001340234023402340234023402340334A3
:1005A8000334043404340834123414341734203433
:0E05B8002034203420342034203420342034E9
:100600008A018A140A148207803483348634893438
:100610008D3490349334963499349C349F34A2347E
:10062000A534A834AB34AE34B134B434B734BA34AE
:10063000BD34BF34C234C534C734CA34CD34CF34EA
:10064000D134D434D634D934DB34DD34DF34E1343E
:10065000E334E534E734E934EB34EC34EE34F034AD
:10066000F134F334F434F534F634F834F934FA343C
:10067000FB34FC34FC34FD34FE34FE34FF34FF34F0
:10068000FF34FF34FF34FF34FF34FF34FF34FF34D2
:10069000FF34FF34FE34FE34FD34FD34FC34FB34CF
:1006A000FA34F934F834F734F634F534F334F234F8
:1006B000F034EF34ED34EC34EA34E834E634E43446
:1006C000E234E034DE34DC34DA34D734D534D334B5
:1006D000D034CE34CB34C934C634C334C134BE3440
:1006E000BB34B834B534B334B034AD34AA34A734E1
:1006F000A434A1349E349B349834943491348E3491
:0A0700008B348834853482347E3453
:100718008A0103308A0070088207003401340134EA
:10072800023402340234033403340334043404340A
:1007380004340534053406340634063407340734E3
:1007480007340834083409340934093410341034AF
:100758001134113411341234123412341334133462
:100768001434143414341534153416341634173438
:1007780018341834193420342034213422342334E2
:100788002434243425342534263427342734283493
:10079800293430343134313432343234363442341A
:1007A8005034553463346834253478342034503424
:1007B8005034503450345034503450345034513410
:100800008A010A1582077E347B3478347534723459
:100810006F346C346834653462345F345C3459341A
:100820005634533450344D344B34483445344234C8
:100830003F343D343A3437343534323430342D3467
:100840002B34293426342434223420341E341C34EE
:100850001A341834163414341334113410340E345A
:100860000D340B340A3409340834073406340534A3
:1008700004340334033402340234013401340034C8
:1008800000340034003400340034003401340134C6
:10089000013402340234033404340434053406349D
:1008A000073408340A340B340C340D340F3410344C
:1008B000123414341534173419341B341D341F34D6
:1008C00021342334253427342A342C342F34313442
:1008D0003334363439343B343E3441344334463493
:1008E00049344C344F345234553458345B345E34CC
:1008F0006134643467346A346D34703473347734FB
:060900007A347D348034DE
:100918008A0104308A0070088207003400340034E9
:10092800003400340034003400340034003400341F
:10093800003400340034003400340034003400340F
:1009480000340034003400340034003400340034FF
:1009580000340034003400340034003400340034EF
:1009680000340034003400340034003400340034DF
:1009780000340034003400340034003400340034CF
:1009880000340034003400340034003400340034BF
:1009980000340034003400340034003400340034AF
:1009A8000034003400340034013401340234023499
:1009B800023402340234023402340234023402347F
:100A00000313831230264C26242653260726172646
:100A1000031383120914F101A201A301A801A90182
:100A20000230A900F001AA01AB01AC01AD01AE0199
:100A3000182D031383129101C6258C10F201F301C6
:100A4000F401F501A425F3250800031383122208FD
:100A500081000B11A30AA30A0130A8063025080063
:100A600003138312A91C382D422524088500080091
:100A700029183E2D492525088500080054252608FB
:100A8000850008002818462DA4010800FF30A400A6
:100A90000800A31B4F2D23080021A50008002308F0
:100AA000803E0022A5000800A31B5A2D2308002326
:100AB000A60008002308803E0024A60008000313B7
:100AC0008312061E8D25061CF00A861CF003061DE7
:100AD000F001861DA12597250A128A1500200A1209
:100AE0008A11F1000A128A1500210A128A11A20045
:100AF00003138316F8300105710481000313831278
:100B00000B10A91C8A2D7008283C03188A2D890116
:100B100089148C2D890109140800A301A501A401E1
:100B2000A601A90A033029020319A9010800F01F30
:100B30009C2D5230F0000800533070020319F00170
:100B400008002930F000080003138312A91CB72DF8
:100B50008C210F39F2008C21F039F300F30E8C2236
:100B60000F39F4008C22F039F500F50E08008C23C3
:100B70000F39F2008C23F039F300F30E8C240F3977
:100B8000F4008C24F039F500F50E080003138312ED
:100B90008801AA1CD12D2A18CF2DE5250800EC25A7
:100BA00008002A18D52DD7250800DE2508002B08B7
:100BB000870088010814AA102A1408002C0887004E
:100BC00088018814AA142A1008002D0887008801BB
:100BD00008152A14AA1408002E0887008801881511
:100BE0002A10AA10080072080027AB00730800271B
:100BF000AC0074080027AD00A91C032E7008283C27
:100C00000318032EAD1775080027AE000800031364
:100C100083168C140030920003138312121792165D
:100C200012169215921412148C1012150800031348
:100C3000831681128111011581140114031383128B
:100C4000220881000B110800031383161614961452
:100C50001615961516160313831206080B100800B6
:100C60000317831688018901031383168501870101
:100C70008801890106148614151495140615861525
:100C80001515951506161516811303138312850184
:100C90008701880189010800031383160F178F1637
:100CA0000F160F140800031383128B178B150B10EC
:060CB0008B160B11080079
:100E00008A010A158A140A1482073F3406345B34B7
:0E0E10004F3466346D347D3407347F346F34D4
:101000008A0108308A0070088207073407340734E1
:10101000073404340434043404340434043404340D
:101020000434043404340434043403340334033403
:101030000234023402340234023402340234023400
:1010400002340234023402340234023402340234F0
:1010500002340234023402340134013401340134E4
:1010600001340134013401340134013401340134D8
:1010700001340134013401340134013401340034C9
:1010800000340034003400340034003400340034C0
:1010900000340034003400340034003400340034B0
:1010A00000340034003400340034003400340034A0
:101200008A0109308A00700882076434B234CC3411
:10121000D934063430344E346434753483348F34E6
:101220009834A034A734AD34B2346D3475347D3481
:10123000063412341D3427343034383440344734C3
:101240004E3454345A345F34643469346D347134F8
:10125000753479347D348034063412341D342734A7
:1012600030343834403447344E34543459345F3495
:10127000643469346D347134753479347D340034B8
:1012800006340C34123418341D34223438345934B2
:101290007134833491349C34CE34DF34E734EC340D
:1012A000F034F234F434F534F634FC34FE34FF34E4
:04400E00D420FF3F7C
:00000001FF
